:020000040000fa
:080000000001040000000000f3
:020000040000fa
:100008009a0100009a0100009a0100009a0100007c
:100018009a0100009a0100009a0100009a0100006c
:100028009a0100009a0100009a010000cc07000024
:100038009a0100009a0100005c0800007c0800009a
:100048009a0100009a0100009a0100009a0100003c
:100058009a0100009a0100009a0100009a0100002c
:100068009a0100009a0100009a0100009a0100001c
:100078009a0100009a0100009a0100009a0100000c
:100088009a0100009a0100009a01000092070000fe
:100098009a0100009a0100009a0100009a010000ec
:1000a8009a0100009a0100009a0100009a010000dc
:1000b8009a0100009a0100009a0100009a010000cc
:1000c8009a0100009a0100009a0100009a010000bc
:1000d8009a0100009a0100009a0100009a010000ac
:1000e8009a0100009a0100009a0100009a0100009c
:0800f8009a0100009a010000ca
:020000040000fa
:100108009a0100009a0100009a0100009a0100007b
:100118009a0100009a0100009a0100009a0100006b
:100128009a0100009a0100009a010000cc07000023
:100138009a0100009a0100005c0800007c08000099
:100148009a0100009a0100009a0100009a0100003b
:100158009a0100009a0100009a0100009a0100002b
:100168009a0100009a0100009a0100009a0100001b
:100178009a0100009a0100009a0100009a0100000b
:100188009a0100009a0100009a01000092070000fd
:100198009a0100009a0100009a0100009a010000eb
:1001a8009a0100009a0100009a0100009a010000db
:1001b8009a0100009a0100009a0100009a010000cb
:1001c8009a0100009a0100009a0100009a010000bb
:1001d8009a0100009a0100009a0100009a010000ab
:1001e8009a0100009a0100009a0100009a0100009b
:0801f8009a0100009a010000c9
:020000040000fa
:100200000f8420000eff20000e0188000000000077
:10021000000020000000e000020032000001200089
:10022000200288000c000700c08920000100200087
:1002300011000700000020000000e0000200320072
:100240000000020000000000f206020000000000b2
:100250000040da000000fe004440a9000000200039
:100260000000e0000300320000002000a001880030
:100270004440a8000000060091018800800078003a
:100280000000eb0015003700e280400032a0b4000f
:100290009101ba00e280400032a0b4009102ba009d
:1002a000e280400032a0b4000002eb00472bde00e9
:1002b000f507b200602ce10004003a000059eb00a1
:1002c0008301e900fdff3e00040037006128e100e2
:1002d000010032000082eb00040007001101ba00a7
:1002e0000200e000e8ff3a00000006003159ba00c1
:1002f0008301e9000c0032002159ba008301e900b2
:10030000080032000400e00003003a00e2804000f0
:1003100032a0b400f5ff370011d9ba008301e9001b
:10032000faff3a008100e800e180400032a0b4000a
:10033000000006000040da000000fe00140020006b
:100340006b003700f4ff2f00690037000001be008a
:100350001e0007000470a70003f0a10003f8a3002b
:1003600013003a006509b1001000320009003500a1
:100370006928e100020035000100280000000500a6
:1003800000004000818048008502e900fcff3a003f
:1003900000000600f88f4200050035008100d10002
:1003a0000080d3008502e800fcff3a000000060050
:1003b0008000eb00000005004f89de00820178001c
:1003c000660037006011b80074003700c70ade000d
:1003d000f107b200f50fb20008003200e1cf420091
:1003e000020032000170a00024000500810f70009f
:1003f000010032000408050044000500810f700070
:1004000002003a00140005008502e90000004000e7
:1004100081c04800fcff3b000170a00024000500e3
:10042000889fbe008a9fbe008c1f7800b000070026
:10043000b700330003866c006450e10024003200f2
:100440006420e100270032006150e1002200320008
:100450006120e100210032008b854200eb07b100f2
:100460000134b800003ab8000804420089844a0008
:10047000013ab8000030b8008880400009014a0005
:100480000400330000004000818048000201490060
:100490008b05e900c909dd0083017000010032000d
:1004a00013002000c814de004814dd004709de00f8
:1004b0001200b200c808de00088470006600070061
:1004c00001f0a1000cf0a70001f0a0009900370096
:1004d0006120e1009b0032000801be000200be0066
:1004e000f7ff37006150e100fcff3a00950037004c
:1004f000889fbe008a9fbe00841f78007c00070092
:100500004f00780011003300f0ff2f00838f6c0044
:1005100006003b00040565000a00a700080037003c
:1005200009f0a6001000200008003700820f5400d8
:10053000838f5c00030039001000200001003e00a2
:100540000000200009f0a7000000ea004f05be00ef
:100550004f04be000000e00000000600881f780085
:10056000030478000300e00007003d006000100075
:10057000e080180060011900e081190002003b00d2
:1005800001f02d00030037000400070008f0a70069
:1005900001f0a0004f04780000000600889fbe0014
:1005a0008a9fbe0000827000040271000482710004
:1005b000260032000004be000200be006011b80038
:1005c0006b092000950220000182cf000a0039004b
:1005d0000541b1000082cf00070039000541b1009c
:1005e0000982cf00040039000541b1000882cf0024
:1005f000010039000541b1000542520012003200ed
:100600000a003b0082817100610164008100d10019
:100610000080d3008984d3000884d3008b05e800d0
:100620000442e800f7ff3a000700370008044400de
:1006300089844c0000004800818048008b05e90057
:100640000442e900f9ff3a00030007004f05be002d
:100650004f04be00000006008100200061805500ac
:100660000b003d000b00200061fe2f000100e100a7
:100670001d00340082817100610164008904d10091
:100680000884d3000000e800faff3a00710020005f
:100690006100640003007000020060000900320085
:1006a00061044400e0844c000988a5000500320084
:1006b0008b05e8006808e10002003a008904d100d7
:1006c0000884d300f20f20000258e10005003d002d
:1006d000c75ddd00f907b200898075000800780069
:1006e000000006000bf827008b00780000000500d2
:1006f0000004be0035ff07000003be000405be0075
:100700000200be0031ff0700844f750000000600a4
:100710000200be006450e100050036006420e100e4
:10072000020036000968a30001003a000800be007c
:100730000160a0004f0678004f05be004f04be00c8
:1007400000000600f0ff2f00f1ff2700f9ff37003f
:020000040000fa
:100750000000fa00841c80000480a1000490a10025
:1007600004a0a000841c880091e3a80091a3a90024
:100770009163a900941c80000460a1000470a10092
:10078000941c8800951c800004fc2f0004826200e9
:100790000400a000941c880094e3a800a41c80001e
:1007a0000400a0000410a1000420a100a41c8800e3
:1007b000a41c80000430a1000440a0000450a0004c
:1007c000a41c8800a41c80000480a0000490a10048
:1007d00004a0a000a41c880094c3a8000002eb00a1
:1007e000b41c88008760a900f40f2000c41c880096
:1007f0008f60a8008e43a900d4ff210084198800cf
:1008000084aa200004188800741b80000400a10042
:100810000410a000741b8800840a2500041b8800b3
:10082000241b80000430a1000440a1000450a1005a
:100830000460a000241b8800841c80000480a100a8
:100840000490a10004a0a100841c88000000000006
:10085000851c8000040e200004826200e00f52001c
:10086000fbff3a000080fa00000006000000fa00da
:10087000451580008403200005027200441588009d
:10088000140980000480a1000490a10004a0a1002c
:100890001409880023e1a90023a1a90022e1a900ed
:1008a00022c1a9002241a8002221a9002501a800f7
:1008b00024e1a800240980000440a1000450a00005
:1008c0000460a1002409880004532700340988002b
:1008d0000082eb0044098800140980000480a00015
:1008e0000490a00004a0a000140988000080fa0071
:1008f000000006000000fa00c1e1a900040e80001b
:100900000420a1000430a100040e8800040e800021
:100910000440a1000450a1000460a1000470a100e3
:10092000040e8800040e80000400a1000410a10041
:10093000040e8800c901a800c921a800c801a800a8
:10094000c821a8000002eb00140e880074132000d8
:10095000240e88000080fa00000006000000fa0063
:100960000de2a9000da2a9000d42a8000ce2a8000a
:10097000641080000410a1000420a100641088000d
:100980000c02a9000fe2a9000f62a90074108000f8
:100990000460a1000470a100741088000ea2a900d8
:1009a00074002000a41088008540a9008520a900bb
:1009b000c40480000480a0000490a10004a0a00052
:1009c000c4048800c40480000440a0000450a100b6
:1009d0000460a000c40488008d40a8008d20a800f9
:1009e0000cc2a9000de2a8000f42a8000080fa0086
:1009f000000006000000fa000002eb000408880076
:100a000005e1a90005a1a90004c1a9000421a900cc
:100a1000240880000440a1000450a100240888009c
:100a200084382100140888008460a9008c60a80024
:100a3000a404800004c0a00004d0a00004e0a00032
:100a4000a40488000080fa00000006000000fa00fc
:100a50000002eb003408880011e1a90011a1a900ef
:100a600010c1a9001021a900840880000440a10041
:100a70000450a100840888000471220064088800e2
:100a800084c0a9008cc0a800b40480000480a00029
:100a90000490a00004a0a000b40488000080fa0024
:100aa000000006000000fa000002eb005408880075
:100ab00013e1a90013a1a90012c1a9001221a900e4
:100ac000940880000440a1000450a100940888000c
:100ad000843e20007408880084e0a9008ce0a8000f
:100ae000b404800004c0a00004d0a00004e0a00072
:100af000b40488000080fa00000006000600fa0036
:100b0000200798002e029000040f78000a0037009a
:100b1000a42c200014079800030037001e02900048
:100b20000402e900140798001e029000e00f520032
:100b3000faff3a001e0fe9001e027800e00f520093
:100b4000f3ff3a000080fa00000006001000fa00ef
:100b5000000f7800120798002307980034079800c8
:100b60004507980056079800670798007107980096
:100b70001e0278001e039000ae039000068abe009d
:100b80001e0278003e039000ce03900026029800db
:100b9000370298001e0278005e039000ee0390007a
:100ba00046029800570298001e0278003ebb97004c
:100bb000cebb970066029800770298001e0278006c
:100bc000fe039000070a98001e0278001ebb9700e3
:100bd000aebb9700360a9800470a98001e027800bc
:100be0007eb397008ebb9700760a98000712980094
:100bf0001e0278005eb39700eeb39700361298009d
:100c0000471298001e0278003eb39700ceb39700bb
:100c1000161a9800271a98000080fa0000000600b3
:100c20000e00fa00881f7800600798006483200097
:100c300014029000240798003409800034079800bb
:100c40006022b8004407980055079800ae02900053
:100c50003e02900004825200cfa2de000400be00db
:100c6000d5fd07000002be00440798005507980014
:100c70006e0290001403be004e029000de0290004f
:100c80000401be000600be00e5fd07000002be0034
:100c9000048fbe001e02be0018c0b3000200240074
:100ca000934724000400be00a6fd07000002780060
:100cb000e00f520001003d000044eb00e04f540003
:100cc000030032000400240095472400048fbe0076
:100cd0001e02be0018c0b3000200240093472c007f
:100ce0000400be0095fd070000027800e00f5200ee
:100cf000010034000044eb00e04f540003003200d8
:100d00000400240095472c00048fbe001e02be0084
:100d100018c0b3006011b8000400be0087fd0700d2
:100d200000027800e00f5200010035000044eb00a3
:100d3000e04f54000a0032000002eb00b40e8800bd
:100d40001e02be0005f0a2000400be007ffd0700e9
:100d50000002be0004027800c40e880008003700bc
:100d60001e02be000400be0078fd07000002be00a7
:100d700004027800b40e88000002eb00c40e880064
:100d80004f0478000080fa00000006000200fa001c
:100d9000000f78001e027800e40a9000540a9000c8
:100da0001e037800740b9800051398001e0278004b
:100db000a4129000141290001e03780034139800bf
:100dc000451398001e027800841a90007412900057
:100dd0001e037800141b9800251b98000080fa0061
:100de000000006000200fa00a0fe0700c1fe070096
:100df0006022b800849fbe006022b800849fbe00bd
:100e00006022b800849fbe006022b800849fbe00ac
:100e10000400200005122400849fbe00a1002000d1
:100e20006033b800d4cc2c00c5dc230002002000c5
:100e3000030024000080200044ff0700f4875700cf
:100e400018ff0700d862a900d882a900d8a2a9007b
:100e5000dc62a900dc82a900dca2a900c1e1a80033
:100e600013e1a8000002eb00040f78000002eb0081
:100e7000040f7800090037006483200014029000fa
:100e8000e702520064832000150298001000200041
:100e90001aff0700dc82a8001e0fe800743e200045
:100ea0009e027800848f5200f3ff3600dc82a90096
:100eb0000002eb00b40e88000002eb00c40e8800b4
:100ec00013e1a9000453270034098800648320003b
:100ed00005532700150298001000200007ff0700a7
:100ee000c4fe0700d9fe070019fe0700841c80001d
:100ef0000480a1000490a10004a0a100841c88002b
:100f000000000000851c8000040e200004826200a6
:100f1000e00f5200fbff3a0005e1a80011e1a80034
:100f2000ffff3700849fbe000000fa008760a90021
:100f3000b41c800064026200e00f52000100320025
:100f40009643a900b41c800061026200e00f5200c9
:100f50000e0032009603a900351c80006483200037
:100f6000050a7800451c8000648320001502980063
:100f7000551c80006483200025029800651c8000b9
:100f800064832000350298008ee3a9000080fa00f7
:100f90004f02be00004006003600f800809fbe00f1
:100fa000829fbe00849fbe00869fbe000400fa00a0
:100fb0008460a9006022b800048fbe006483200012
:100fc0009402900034098000848f5200140036008f
:100fd000648320009402900034098000048252004f
:100fe000050020000400be00f6fc07000002be0061
:100ff000048fbe001e02be000400be00d3fc07002a
:101000000002be0004027800b40e88000002eb006b
:10101000c40e8800dca2a900dc62a8001f00370013
:10102000648320009402900034098000848f520071
:101030001400310035098000648320001402900000
:1010400004825200050020000400be00ddfc070001
:101050000002be00048fbe00dca2a800dc62a90072
:101060000002eb00b40e88001e02be000400be00a9
:10107000b6fc07000002be0004027800c40e88001f
:10108000060037000002eb00b40e88000002eb00ff
:10109000c40e8800dc62a900dca2a9000080fa006e
:1010a0004f03be004f02be004f01be004f00be0006
:1010b0003600f90000400600841f78000000fa00a6
:1010c00084c0a90034098000341b8800140020006b
:1010d000641b88006e63a80000000000741b800081
:1010e00068026200e00f5200fcff3a000080fa0044
:1010f0004f027800004006003600f800809fbe00d6
:10110000829fbe00849fbe00869fbe000000fa0042
:1011100084e0a90000802000c1fe07000080fa00e2
:101120004f03be004f02be004f01be004f00be0085
:081130003600f9000040060042
:020000040000fa
:10113800000800003600000000000000360800002b
:101148000a000000020000000000300075000000e6
:0c115800000030007500000000000000e6
:020000040000fa
:0200000401f009
:04000000f2bf00004b
:020000040000fa
:0200000401f009
:04000400ff7f00007a
:020000040000fa
:0200000401f009
:04000800ffff0000f6
:020000040000fa
:0200000401f009
:04001400ffff0000ea
:020000040000fa
:0200000401f009
:04001800ffff0000e6
:00000001FF
